:100000000C942C000C9454000C9454000C94540048
:100010000C9454000C9454000C9454000C94540010
:100020000C9454000C9454000C9454000C94540000
:100030000C9454000C94A6040C9454000C9454009A
:100040000C9454000C9454000C9454000C945400E0
:100050000C9454000707A70811241FBECFE5D8E071
:10006000DEBFCDBF11E0A0E6B0E0E8EAF1E102C0FA
:1000700005900D92A236B107D9F721E0A2E6B1E0D2
:1000800001C01D92A73FB207E1F710E0CCE2D0E03B
:1000900004C02197FE010E94CC08CA32D107C9F7DB
:1000A0000E940D070C94D2080C940000EF92FF926E
:1000B0000F931F93CF93DF937B018A01BC0185EEE1
:1000C00091E00E9425066DE071E085EE91E00E94CE
:1000D0002506E7010E0D1F1DC017D107D1F07E01C7
:1000E0008881803130F462E970E085EE91E00E9411
:1000F0002506219641E050E0F701608185EE91E010
:100100000E9437066EE071E085EE91E00E942506C0
:10011000E3CF60EE70E085EE91E0DF91CF911F912B
:100120000F91FF90EF900C94A3060F931F93CF9322
:10013000DC01ED91FC91603D11F0603E89F4C62F29
:100140008C010284F385E02D60ED0995D801ED91D5
:10015000FC916FEF6C0F0284F385E02DC80103C0A2
:100160000284F385E02DCF911F910F910994FC013A
:10017000718360835383428335832483DC01AA5FC8
:10018000BE4F1C9211961C9211961C9211961C92B5
:1001900011961C9211968FEF8C9311968C93AF5FF2
:1001A000BE4F1C92E25FFD4F108208950895CF93D9
:1001B000DF93EC0188819981DC01ED91FC91028053
:1001C000F381E02D60E070E009958A819B81DC017C
:1001D000ED91FC910190F081E02DDF91CF91099498
:1001E0000895CF93DF93EC018A819B81DC01ED912F
:1001F000FC910280F381E02D60E009958C819D8166
:10020000DC01ED91FC910280F381E02D60E0DF9153
:10021000CF910994CF93DF93EC018A819B81DC011C
:10022000ED91FC910280F381E02D61E009958C81D4
:100230009D81DC01ED91FC910280F381E02D61E074
:10024000DF91CF910994EF92FF920F931F93CF9379
:10025000DF93FC01E65FFE4F1082329710827C0133
:1002600025EFE21A2EEFF20AD7012C918C01045FE0
:100270001E4F2F3F29F4F80120812F3F09F465C05C
:10028000EC0188819981DC01ED91FC910280F38180
:10029000E02D61E070E0099564E670E080E090E0B8
:1002A0000E94AF06F80180818F3F39F0D7018C930F
:1002B0008FEF8083CE010E940A0188819981DC0141
:1002C000ED91FC910480F581E02D0995888199815B
:1002D000DC01ED91FC910284F385E02D60EE09953F
:1002E00010E000E07E01B2EFEB1ABEEFFB0AF7016F
:1002F000208188819981211758F0FE01E10FF11DBD
:10030000E35FFE4F6081060F0E9495001F5FEFCFF5
:10031000602F0E94950088819981DC01ED91FC910C
:100320000680F781E02D099588819981DC01ED91A6
:10033000FC910280F381E02D60E070E0DF91CF91CD
:100340001F910F91FF90EF900994DF91CF911F9132
:100350000F91FF90EF900895FC01E35FFE4F108234
:10036000319622E02083319623E020830C942301F0
:100370002F923F924F925F926F927F928F929F92B5
:10038000AF92BF92CF92DF92EF92FF920F931F93A3
:10039000CF93DF9300D000D0CDB7DEB79C838B83A3
:1003A0006C0186EFC81A8EEFD80AAB81BC81A85FBA
:1003B000BE4F5D01EB81FC81E75FFE4F7F010B814A
:1003C0001C810A5F1E4F8B809C80F6E08F0E911C73
:1003D0008B819C81895F9E4F9A8389832B803C808F
:1003E00093EF291A9DEF390A4B805C80A5EF4A1ADA
:1003F000AEEF5A0A6B807C80B2EF6B1ABDEF7B0ABE
:10040000F601808181119DC0AB81BC818D919C9151
:10041000DC01ED91FC910190F081E02D0995181619
:1004200019060CF08EC0EB81FC8180819181DC018A
:10043000ED91FC910084F185E02D0995803EB1F4A9
:10044000F801108281E0D5018C93F7011082AB8115
:10045000BC8112968D919C911397DC01ED91FC91DA
:100460000480F581E02D0995F30108C0D5019C9128
:10047000992331F2803D21F481E0F7018083C0CFE0
:10048000D7019C91992369F0F801908121E0290F0F
:100490002083EB81FC81E90FF11D8F5F86831C9225
:1004A0000AC0D8019C9121E0290F2C93EB81FC819B
:1004B000E90FF11D8683F8012081223008F4A0CFD6
:1004C000AB81BC8117968C9190E0AC014E5F5F4F81
:1004D00030E04217530709F093CFF40120E030E0F9
:1004E00060E0415051092417350728F47191670FD6
:1004F0002F5F3F4FF8CFEB81FC8126812F3F19F40E
:100500003085303F21F0D2013C91231317C0EB819D
:10051000FC81E80FF91F8781861731F08B819C8160
:100520000E94AC01F80108C0E2E0A981BA81EC9315
:1005300081E0D6018C93F101108262CFD8011C9228
:100540005FCF0F900F900F900F90DF91CF911F9181
:100550000F91FF90EF90DF90CF90BF90AF909F9062
:100560008F907F906F905F904F903F902F90089565
:10057000FC01E35FFE4F1082319622E0208331962A
:1005800024E020830C942301CF93DF93EC01C35F1D
:10059000DD4F28812D3F31F40E94B80288818F5FA2
:1005A00088830AC02D3F40F4820F911DFC01E05F5B
:1005B000FE4F60832F5F2883DF91CF910895FC0168
:1005C000E35FFD4F20812E3F10F00C94B802FC0138
:1005D000E35FFE4F108231962E5F2083319621E03B
:1005E00020830C942301FC01E35FFD4F20812E3F0B
:1005F00010F00C94B802FC01E35FFE4F10823196BC
:100600002E5F2083319622E020830C9423012F92C9
:100610003F924F925F926F927F928F929F92AF9292
:10062000BF92CF92DF92EF92FF920F931F93CF93DF
:10063000DF93EC016B017C0186EFE81A8EEFF80A7C
:100640008E01095F1E4F2E01E5EF4E1AEEEF5E0A96
:1006500022242A943E01F8EF6F1AFEEF7F0A5E0112
:1006600082EFA81A8DEFB80A4E01E4EF8E1AEEEF72
:100670009E0ACE010E94B801F7018081882309F407
:10068000E3C0F80120819F819F5F921B21F4CE017E
:100690000E94DF02EECF30E0B9016A5F7F4F6C0F3E
:1006A0007D1FFE01E20FF31F8681833270F48132D9
:1006B000C0F58531D1F020F4803108F0C8C020C0E9
:1006C0008032F1F463E0362E2EC08233A1F040F484
:1006D0008F3209F4BCC0803399F454E0352E23C026
:1006E00040E1480F4230E8F00BC0FB01319661E079
:1006F000690F42E010C0FB013180339433940EC087
:1007000041E050E084E990E00E94560012C051910F
:10071000552319F04F5F4613FACF342E332049F09A
:1007200002C042E0342E931540F462E0CE010E94F4
:10073000C402CE010E94F3029CCF833220F58032A6
:1007400008F06DC0823109F457C060F4803109F4BB
:1007500066C0813109F070C061E0CE010E94C40220
:1007600063E14FC0843109F45AC008F44EC08531AA
:1007700009F062C040E050E060E070E082EB90E0A1
:100780000E94560059C0823309F449C038F48F32B0
:1007900009F441C0803309F04FC041C0803F19F0D7
:1007A000813F99F049C0CE010E94F100F201208200
:1007B000F7011082F301108240E050E060E070E049
:1007C00084EA90E00E9456003AC0F50180818823B7
:1007D00089F0FE01E20FF31F8781F4018083B901E4
:1007E000695F7F4F6C0F7D1F41E050E08AEA90E027
:1007F0000E94560061E005C061E0CE010E94C40283
:1008000060E3CE010E94C4021AC061E0CE010E94E2
:10081000C40260E1F6CFCE010E94230110C0F601B0
:100820003082F8018081830D808390E083199109E3
:1008300006968C0F9D1F0EC0CE010E94F302F80198
:100840008081380E308215CF80E090E003C03324E1
:10085000339469CFDF91CF911F910F91FF90EF906B
:10086000DF90CF90BF90AF909F908F907F906F90D0
:100870005F904F903F902F9008958091620190E09B
:1008800008959FB7F894672B21F48A988AB18069FC
:1008900003C08A9A8AB18F768AB99FBF0895F89467
:1008A0000895789408954FB7F89480916201882351
:1008B000A9F0E0916301F0E0EB59FE4F80812091B7
:1008C000630130E02F5F3F4F2F7733272093630181
:1008D0009091620191509093620101C080E04FBFFE
:1008E00008950EC020F000009098929A03C0909A4C
:1008F000929800C038E23A95F1F7000000000895A0
:10090000262F0894EFDF8894EDDF2795EBDF2795FE
:10091000E9DF2795E7DF2795E5DF2795E3DF2795D3
:10092000E1DF2795DFDF2795DDDF0894DBDF089522
:1009300089E185BD13BC8F9A9798089585B5662384
:1009400011F08F7C01C0806185BD08951F920F92C8
:100950000FB60F9211248F939F93EF93FF935A99A1
:1009600018C08CB1909162019F3799F0E0916401B9
:10097000F0E0EB59FE4F80838091640190E0019696
:100980008F77992780936401809162018F5F8093B4
:100990006201FF91EF919F918F910F900FBE0F9089
:1009A0001F90189528EC30E0FC013183208310BCA7
:1009B00080E189B982E08BB98AB1887480698AB98B
:1009C00086E880BD8A989298889A909A789408953B
:1009D000FC0181E08483868310868583878311866A
:1009E000108211821282138208951ABA17BA14BAA9
:1009F0002FEF2BBB28BB25BB0C94E804FC0199B35B
:100A000026B383B321FD02C030E801C030E090FD81
:100A100002C050E201C050E0352B91FD02C050E110
:100A200001C050E0352B92FD02C048E001C040E01B
:100A3000342B93FD02C044E001C040E0342B3083EE
:100A4000662349F025FD02C072E001C070E022FB80
:100A5000442740F908C022FD02C072E001C070E0E6
:100A600023FB442740F951E04527342B372B3083B3
:100A700026FD02C040E201C040E0322F3095331F16
:100A80003327331F3295307F342B3183422F40710F
:100A9000662341F023FD02C050E801C050E041113F
:100AA0000AC007C0411102C050E801C050E025FD56
:100AB00002C040E401C040E0352B342B318381FD7E
:100AC00002C030E801C030E094FD02C040E201C045
:100AD00040E0342B95FD02C040E101C040E0432BD3
:100AE00096FD02C038E001C030E0342B9095991F8C
:100AF0009927991F990F990F932B9283662349F099
:100B000085FD02C052E001C050E082FB332730F97E
:100B100008C082FD02C052E001C050E083FB3327D1
:100B200030F941E03427932B952B928386FD02C048
:100B300030E201C030E0982F9095991F9927991FB6
:100B40009295907F932B9383382F3071662341F0D9
:100B500083FD02C040E801C040E0332341F009C0FA
:100B6000311102C040E801C040E085FD02C030E420
:100B700001C030E0942B932B93839481292321701F
:100B8000248395818923817085830895CF93DF9392
:100B9000EC012696DC011496FC0138960A9631E0A9
:100BA0002881211106C02C91222319F020812F5F6A
:100BB00020832C9129933D933196E817F90781F70B
:100BC000DF91CF910895FC01E60FF11D8081442350
:100BD000D9F0613089F028F0623019F06330A1F467
:100BE0000BC0211111C0218130E095E0359527958A
:100BF0009A95E1F7237007C0211106C098E0899FFC
:100C0000900111242078822B0895860F911DFC01FC
:100C100080850895623030F4FC01E60FF11D808577
:100C2000841B8087089510BC80E189B982E08BB96C
:100C30008AB1807988608AB986E880BD919A899A5C
:100C400008955D9BFECF6CB908950F931F93CF93CA
:100C5000DF938C01EB016991662321F0C8010E94AA
:100C60002106F9CFDF91CF911F910F910895AF9297
:100C7000BF92CF92DF92EF92FF920F931F93CF9389
:100C8000DF9300D01F92CDB7DEB77C01411551052F
:100C9000D1F428E0C22ED12C30E8A32EB12C062F9F
:100CA00010E0C50180239123892B11F460E301C07A
:100CB00061E3C7010E942106B594A79481E0C81A98
:100CC000D10879F732C04130510579F5603188F0AB
:100CD000262F30E084E0359527958A95E1F72A3074
:100CE000310514F4205D01C0295A298381E090E088
:100CF00002C080E090E0FC0131966F706A3010F421
:100D0000605D01C0695AA1E0B0E0AC0FBD1FA80F43
:100D1000B91F6C9381E090E08C0F9D1FE80FF91FC5
:100D20001082BC01C7010E9425060F900F900F9002
:100D3000DF91CF911F910F91FF90EF90DF90CF90B7
:100D4000BF90AF900895CF93DF93EC010E942506EA
:100D50006EED70E0CE01DF91CF910C9425066F3FD0
:100D600071058105910539F030F061EE70E085EE96
:100D700091E00C94A306262F34E03A95F1F7000099
:100D80002A95D1F7089568E071E085EE91E00E9420
:100D9000250640E050E06091E60185EE91E00E947A
:100DA000370660EE70E085EE91E00E94A306809128
:100DB000E601982F91709093E701982F9C709430E2
:100DC00081F020F4911113C095E007C0983021F014
:100DD0009C3069F492E006C094E09093E90192E0BF
:100DE00004C093E09093E90191E09093EA01869525
:100DF00081708093EB01089580E090E0089508955C
:100E00000895089580E00895089581E0089585EE9D
:100E100091E00C94130608950895CF93DF93CDB716
:100E2000DEB7C651D2400FB6F894DEBF0FBECDBFBD
:100E3000CE018C5E9D4F0E94D20488ED90E0CE5E84
:100E4000DD4F99838883C251D2408EE591E0C05F27
:100E5000DD4F99838883C051D24060E171E085EE17
:100E600091E00E94A30660E670E085EE91E00E94AA
:100E7000A3069E01205F3D4FAE014E5E5D4FBE0159
:100E80006C5E7D4FCE0101960E94B700CE010196A7
:100E90000E94D70065E371E085EE91E00E94A30611
:100EA000BE016A5E7D4FCE0101960E9407038C0150
:100EB0000097A1F49091E60180B38695869586957A
:100EC00080958F708093E60198130E94C30660910D
:100ED000EB018CEE91E00E94FE04E2CFFC018081E8
:100EE000813209F4E5C078F4843171F1803209F47B
:100EF00082C08031A9F661E0CE0101960E94C40251
:100F000000E610E010C0803309F40EC1823309F40A
:100F100014C1823229F661E0CE0101960E94C4021A
:100F2000E12CF12CECC0F80161918F01CE0101960A
:100F3000662319F00E94C402F6CF0E94C4028CEE10
:100F400091E00E94E804ACCF61E0CE0101960E94DE
:100F5000C40261E0CE0101960E94C40262E0CE01AB
:100F600001960E94C4026CE0CE0101960E94C40268
:100F700060E0CE0101960E94C40263E0CE010196BA
:100F80000E94C40268E0CE0101960E94C40260E0A3
:100F9000CE0101960E94C40260E0CE0101960E943B
:100FA000C40262E1CE0101960E94C40268E0CE0153
:100FB00001960E94C40260E0CE0101960E94C40224
:100FC00060E0CE0101960E94C40262E0CE0101966B
:100FD0000E94C40262E0CE0101960E94C40260E059
:100FE000CE0101960E94C40260E0CE0101960E94EB
:100FF000C40260E0A7C08091E701882359F0809186
:10100000E8018F5F8093E8019091E901891302C0A4
:101010001092E8018CEE91E00E94C60561E0CE01DD
:1010200001960E94C402F80181818230F1F582812B
:101030008230D9F560E0CE0101960E94C402009191
:10104000E70111E09091E8018091EA01981708F01A
:1010500010E0212F402F60E08CEE91E00E94E3052C
:10106000682FCE0101960E94C402212F402F61E01B
:101070008CEE91E00E94E305682FCE0101960E945C
:10108000C402212F402F62E08CEE91E00E94E30524
:10109000682FCE0101960E94C402212F402F63E0E9
:1010A0008CEE91E00E94E30525C06AE371E0F4CE86
:1010B00061E0CE0101960E94C402F8018181823074
:1010C000D9F460E0CE0101960E94C40260E08CEE8B
:1010D00091E00E940506682FCE0101960E94C4028D
:1010E00060E0CE0101960E94C40261E08CEE91E0C6
:1010F0000E940506682F26C069E471E0CDCEF80194
:10110000818190E0E816F90608F0CACE60E8CE01C9
:1011100001960E94C40260E0CE0101960E94C402C2
:10112000FFEFEF1AFF0AEBCFF801618161504381B5
:101130008CEE91E00E940A0604C0F801828180933F
:10114000F60161E0CE0101960E94C402A9CE8CEEA8
:1011500091E00E94F5048FEF8093E6011092E70181
:101160001092E8011092E9011092EA011092EB014D
:1011700081B3877881BB82B3886782BB9091E60197
:1011800080B386958695869580958F708093E601CD
:1011900098130C94C3060895EE0FFF1F0590F49169
:0811A000E02D0994F894FFCF43
:1011A8005345474120454E544552505249534553A3
:1011B8002C4C54442E636F6D7061743B4D5030312C
:1011C8002D494F4E412D4A533B766572312E3031B1
:1011D80061003000756E6B6E6F776E20636F6D6D9A
:1011E800616E64007265736574006164647265732E
:1011F800730069676E6F7265206B436D644D61693A
:101208006E496400000000003D0441044F0451048D
:10121800530471040000000098049E0405070D0A99
:101228000064656C61794D6963726F7365636F6E95
:101238006473203E203235353A206E6F7420737502
:1012480070706F727465640044495053573A2000B7
:10125800494F4E41204A414D4D41205374616E64BF
:10126800617264204D6F64656C202D205665722074
:10127800312E303100626F6F740045727220436DF9
:10128800645377496E7075740045727220436D64BB
:10129800436F696E496E70757400000000000B079B
:0212A8000C0731
:00000001FF
