:100000000C942C000C9454000C9454000C94540048
:100010000C9454000C9454000C9454000C94540010
:100020000C9454000C9454000C9454000C94540000
:100030000C9454000C94C3040C9454000C9454007D
:100040000C9454000C9454000C9454000C945400E0
:100050000C9454004707FA0811241FBECFE5D8E0DE
:10006000DEBFCDBF11E0A0E6B0E0E4E1F2E102C006
:1000700005900D92AE33B107D9F721E0AEE3B1E0C0
:1000800001C01D92A73DB207E1F710E0CCE2D0E03D
:1000900004C02197FE010E940209CA32D107C9F7A4
:1000A0000E944D070C9408090C9400000F931F93B5
:1000B000CF93DF93EB018A01BC0181EC91E00E94B8
:1000C000E40663EE70E081EC91E00E94E40690E0CB
:1000D00080E080179107C8F48881803130F462E9AC
:1000E00070E081EC91E00E94E40641E050E068811C
:1000F00081EC91E00E94EA0664EE70E081EC91E010
:100100000E94E40681E090E0E4CF68EE70E081ECCC
:1001100091E0DF91CF911F910F910C9425070F93E0
:100120001F93CF93DC01ED91FC910284F385E02DC8
:10013000603D11F0603E69F4C62F8C0160ED0995B9
:100140006FEF6C0FD801ED91FC910284F385E02DE7
:10015000C801CF911F910F9109940F93FC017183F6
:10016000608353834283358324830683DC01A95F44
:10017000BE4F1C9211961C9211961C9211961C92C5
:1001800011961C9213968FEF8C93AF5FBE4F1C920B
:1001900011961C92002341F0A450B1408C93023080
:1001A00018F0E35FFE4F80830F9108950895CF9379
:1001B000DF93EC0188819981DC01ED91FC91028053
:1001C000F381E02D70E060E009958A819B81DC017C
:1001D000ED91FC910190F081E02DDF91CF91099498
:1001E0000895CF93DF93EC018A819B81DC01ED912F
:1001F000FC910280F381E02D60E009958C819D8166
:10020000DC01ED91FC910280F381E02D60E0DF9153
:10021000CF910994CF93DF93EC018A819B81DC011C
:10022000ED91FC910280F381E02D61E009958C81D4
:100230009D81DC01ED91FC910280F381E02D61E074
:10024000DF91CF910994EF92FF920F931F93CF9379
:10025000DF93FC01E55FFE4F108232971082DC01D4
:100260001696EC91E80FF92FF11DE55FFE4F208106
:100270008C01025F1E4F2F3F29F4F80120812F3F90
:1002800009F47DC0EC0188819981DC01ED91FC913C
:100290000280F381E02D61E070E0099564E670E092
:1002A00080E090E00E943107F80190819F3FF9F0D3
:1002B0008E81FE01E45FFE4F30E020E02817A0F4BD
:1002C000A90161912F5F3F4F6F3FC1F7FE01E40F1E
:1002D000F51FE45FFE4F90838150990B4817590733
:1002E00019F4CE010E940A018FEFD8018C93888106
:1002F0009981DC01ED91FC910480F581E02D099557
:1003000088819981DC01ED91FC910284F385E02DD7
:1003100060EE099510E000E07E01B0EFEB1ABEEF51
:10032000FB0A88819981F7012081211758F0FE018D
:10033000E10FF11DE15FFE4F6081060F0E948F000B
:100340001F5FEFCF602F0E948F0088819981DC01B1
:10035000ED91FC910680F781E02D099588819981C6
:10036000DC01ED91FC910280F381E02D70E060E012
:10037000DF91CF911F910F91FF90EF900994DF9142
:10038000CF911F910F91FF90EF900895FC01E15FD5
:10039000FE4F1082319622E02083319623E02083A5
:1003A0000C9423012F923F924F925F926F927F9213
:1003B0008F929F92AF92BF92CF92DF92EF92FF9275
:1003C0000F931F93CF93DF9300D000D0CDB7DEB74C
:1003D0009C838B836C0125EFC21A2EEFD20A875FB4
:1003E0009E4F5C014B815C81465F5E4F7A010B81C1
:1003F0001C81095F1E4F8B819C81885F9E4F9A8371
:10040000898382E0282E332433944B805C8091EFE3
:10041000491A9DEF590A8B809C80A4EF8A1AAEEF8F
:100420009A0A6B807C80B0EF6B1ABDEF7B0AF601F5
:100430008081811198C0AB81BC818D919C91DC0140
:10044000ED91FC910190F081E02D099518161906A7
:100450000CF089C0EB81FC8180819181DC01ED9100
:10046000FC910084F185E02D0995803EA9F4F80106
:100470001082D5013C92F7011082AB81BC811296AB
:100480008D919C91DC01ED91FC910480F581E02D32
:100490000995F3018083CBCFD5019C91992339F243
:1004A000803D19F4F7013082C2CFD801EC9121E0F0
:1004B0002E0FD7019C914B815C814E0F511DFA018B
:1004C000D8012C93992301F18F5F8783F701108264
:1004D000223008F4ACCFEB81FC81808590E0AC0148
:1004E0004E5F5F4F2417150609F0A1CF379630E015
:1004F00020E060E0415051092417350738F471912C
:10050000670F2F5F3F4FF8CF8783E2CFAB81BC816E
:1005100017962C9117972F3F21F419963C91303F55
:1005200059F0EB81FC814681F4013E2F38193417D4
:1005300078F431912313F9CF2B813C81820F931FE3
:10054000DC0118968C91861731F0C9010E94C60112
:10055000F80110826CCFA981BA812C92F601308209
:10056000D2011C9264CF0F900F900F900F90DF91EB
:10057000CF911F910F91FF90EF90DF90CF90BF90A0
:10058000AF909F908F907F906F905F904F903F9033
:100590002F900895FC01E15FFE4F1082319622E01A
:1005A0002083319624E020830C942301CF93DF93A2
:1005B000EC01C15FDD4F28812D3F41F40E94CA024A
:1005C00088818F5F8883DF91CF9108952D3FD8F781
:1005D000820F911DFC01EE5EFE4F60832F5F28832A
:1005E000F2CFFC01E15FFD4F20812E3F10F00C9413
:1005F000CA02FC01E15FFE4F108231962E5F20831C
:10060000319621E020830C942301FC01E15FFD4F32
:1006100020812E3F10F00C94CA02FC01E15FFE4FD6
:10062000108231962E5F2083319622E020830C9435
:1006300023014F925F926F927F928F929F92AF921F
:10064000BF92CF92DF92EF92FF920F931F93CF93BF
:10065000DF93EC015B017A016C0185EFC81A8EEF24
:10066000D80A44244A948E01085F1E4F3E01E0EFF1
:100670006E1AEDEF7E0A4E01F2EF8F1AFEEF9F0A1F
:10068000CE010E94D201F6018081882309F40FC1B6
:10069000E114F10499F0F701408280E09E8189170E
:1006A00068F4FE01E80FF11DE45FFE4F20819F8199
:1006B000291302C0F70180838F5FF0CFF8012081FA
:1006C00098859F5F921B21F4CE010E94F102D8CF42
:1006D00030E0B901695F7F4F6C0F7D1FFE01E20FB3
:1006E000F31F87818332E0F4813258F5853161F15F
:1006F00060F48031E8F541E050E084E990E00E9448
:100700005600CE010E940503BBCF43E0542E803239
:1007100091F7951578F562E0CE010E94D602F1CFEF
:100720008233F9F038F48F3219F1803321F774E015
:10073000572EEFCF8533D9F3F0F240E1480F423026
:10074000D0F652E0552EE5CFFB01319641E0490F3E
:1007500062E0562E541649F05191552331F05394CE
:10076000F9CFFB015180539453945110D2CFC9CF8C
:10077000552453948332F0F4803220F5823109F409
:1007800086C048F48031F1F0813109F47AC0CE019D
:100790000E94050371C08431A9F008F47EC0853140
:1007A000B1F750E040E070E060E082EB90E00E9442
:1007B0005600EDCF823331F040F48F3209F473C02C
:1007C000803329F7F501508224C0803F29F0813F12
:1007D000D1F18533E1F6F6CFCE010E94F1009E8182
:1007E000992349F08FEFFE01E45FFE4F8083923042
:1007F00010F031968083F6011082FE01E75FFE4F14
:10080000108250E040E070E060E084EA90E00E94F6
:100810005600F8018081850D80838519990B079614
:100820008C0F9D1FDF91CF911F910F91FF90EF9043
:10083000DF90CF90BF90AF909F908F907F906F9000
:100840005F904F900895F3018081882389F0FE0125
:10085000E20FF31F8085F4018083B901685F7F4F49
:100860006C0F7D1F41E050E08AEA90E00E94560044
:1008700061E0CE010E94D602F8018081580E5082BC
:10088000FFCE61E0CE010E94D60263E1F2CF61E0CB
:10089000CE010E94D60260E3ECCF61E0CE010E945F
:1008A000D60260E1E6CFCE010E942301E5CF90E0C1
:1008B00080E0B8CF80913E0190E008959FB7F89412
:1008C000672B31F48A988AB180698AB99FBF0895ED
:1008D0008A9A8AB18F76F9CFF8940895789408951A
:1008E0004FB7F89480913E018823B1F0E0913F0129
:1008F000F0E0EF5BFE4F808120913F0130E02F5F01
:100900003F4F2F77332720933F0190913E01915025
:1009100090933E014FBF089580E0FCCF0EC020F0C1
:1009200000009098929A03C0909A929800C038E282
:100930003A95F1F7000000000895262F0894EFDFA4
:100940008894EDDF2795EBDF2795E9DF2795E7DF33
:100950002795E5DF2795E3DF2795E1DF2795DFDFA3
:100960002795DDDF0894DBDF089589E185BD13BCA1
:100970008F9A9798089585B5662319F08F7C85BD69
:1009800008958061FCCF1F920F920FB60F92112431
:100990008F939F93EF93FF935A9918C08CB19091C6
:1009A0003E019F3799F0E0914001F0E0EF5BFE4F90
:1009B00080838091400190E001968F779927809302
:1009C000400180913E018F5F80933E01FF91EF9146
:1009D0009F918F910F900FBE0F901F90189528EC4C
:1009E00030E0FC013183208310BC80E189B982E0D2
:1009F0008BB98AB1887480698AB986E880BD8A9883
:100A00009298889A909A78940895FC0181E0808762
:100A100082871486818783871586138214821582C4
:100A2000168217820895FC01118210821ABA17BA31
:100A300014BA9FEF9BBB98BB95BB91B39D7E91BBB6
:100A400092B3926192BBCF010C940505FC0199B35E
:100A5000907331F01182108214BA8FEF85BB089524
:100A600081E090E09183808314BA8FE0F7CFFC019E
:100A7000808191810895FC0149B326B393B330B3CB
:100A8000522F5170808585238087592F5170818521
:100A90008523818780E034FF80E8838380E021FF25
:100AA00080E831FF28C030E0832B30E040FF30E2A7
:100AB000832B30E041FF30E1832B30E042FF38E010
:100AC000832B30E043FF34E0832B8483522F547018
:100AD000662399F070E025FF72E031E0511130E0BB
:100AE000832B872B8483A081B181119799F417827E
:100AF00016821582089530E4D7CF552349F050E08F
:100B000023FB332730F971E03727832B852BEACF7E
:100B100052E0F6CF80E026FF80E230E027FF30E1B0
:100B2000832B8583322F3071662309F442C050E84D
:100B300023FD50E020E0311101C020E4852B822B01
:100B4000858380E091FF80E820E044FF20E2822B53
:100B500020E045FF20E1822B20E046FF28E0822BA9
:100B600020E047FF24E0822B8683392F34706623F0
:100B700061F140E095FF42E021E0311120E0822B5D
:100B8000842B868380E096FF80E220E097FF20E1BF
:100B9000822B8783292F2071662321F130E893FD72
:100BA00030E090E0211101C090E4832B892B8783F2
:100BB0000895332331F030E025FF05C020E0832B7A
:100BC000BECF30E8F9CF20E4FACF332349F030E04C
:100BD00093FB222720F941E02427822B832BD1CFBE
:100BE00032E0F6CF222331F020E095FF05C090E0FF
:100BF000822BDCCF20E8F9CF90E4FACFFC0182858C
:100C00009085811105C0992319F084858F5F8487B1
:100C1000928781E0808783859185811105C0992322
:100C200019F085858F5F8587938781E08187089597
:100C3000FC01E60FF11D83814423B1F06230A9F07D
:100C400018F4613031F00895633019F0643069F0C0
:100C50000895211109C0248130E095E0359527954C
:100C60009A95E1F72370822B08952111FDCF98E02A
:100C7000899F900111242078F6CF860F911DFC01E9
:100C800084850895623030F4FC01E60FF11D8485FF
:100C9000841B84870895623030F4FC01E60FF11D57
:100CA0008485480F44870895FC01208131812130DB
:100CB000310571F4607F70E09B013595279593E0D5
:100CC000660F771F9A95E1F7622B607F628364BBA2
:100CD0000895FC018181882339F082818F5F8283AE
:100CE0009381891301C012820895FC0181810895C6
:100CF000FC0181E022819481291708F080E00895A9
:100D0000FC018581089580B38695869586958095AA
:100D10008F7008951F93CF93DF93EC0118810E9489
:100D2000830688838117E9F06EED70E081EC91E035
:100D30000E94E40650E040E0688181EC91E00E946E
:100D4000EA0668EE70E081EC91E00E942507888158
:100D5000982F917099838C708430A1F030F488239F
:100D600051F0DF91CF911F910895883049F08C3078
:100D7000C1F782E008C085E08B8382E08C83F1CFED
:100D800084E0FACF83E08B8381E0F8CFFC018FEF22
:100D900080831182128213821482158281B3877834
:100DA00081BB82B3886782BBCF010C948A0610BCDA
:100DB00080E189B982E08BB98AB1807988608AB98B
:100DC00086E880BD08950895FB018191BF018111DE
:100DD000FBCF0895CF93DF9300D01F92CDB7DEB73E
:100DE0004115510541F14130510529F530E020E030
:100DF000603168F0262F30E044E0359527954A951C
:100E0000E1F72A30F0F4205D298321E030E06F70B3
:100E1000F90131966A30B8F4605D41E050E04C0F62
:100E20005D1F240F351FD9016C93E40FF51F10824D
:100E3000BA010E94E4060F900F900F90DF91CF91BE
:100E40000895295AE1CF695AE8CFCF93DF93EC0197
:100E50000E94E40666EE70E0CE01DF91CF910C9423
:100E6000E4066F3F71058105910539F030F069EEB8
:100E700070E081EC91E00C942507262F34E03A9540
:100E8000F1F700002A95D1F7089581E0089581ECEB
:100E900091E00C94D70608950895CF93DF93CDB7D2
:100EA000DEB7C851D2400FB6F894DEBF0FBECDBF3B
:100EB000CE018A5E9D4F0E94EF0488ED90E0CC5EEB
:100EC000DD4F99838883C451D24089E391E0CE5E9F
:100ED000DD4F99838883C251D24060E670E081EC97
:100EE00091E00E94250701E09E012E5E3D4FAE017C
:100EF0004C5E5D4FBE016A5E7D4FCE0101960E9441
:100F0000AD00CE0101960E94D70060E171E081EC56
:100F100091E00E94250750E040E0BE01685E7D4FF1
:100F2000CE0101960E9419038C01009771F482ECA6
:100F300091E00E948A0682EC91E00E948006682F70
:100F400088EC91E00E943B05E6CFFC018081823273
:100F500009F42EC1F0F5843109F479C0A0F4803190
:100F6000D1F661E0CE0101960E94D60200E610E0C3
:100F7000F80161918F01662309F458C0CE010196F2
:100F80000E94D602F5CF803209F4B3C0813219F63F
:100F900061E0CE0101960E94D602F8018181833082
:100FA00008F003C1F12CF8018181F81608F0B3CFE5
:100FB00060E0CE0101960E94D6026F2D88EC91E090
:100FC0000E943D06682FCE0101960E94D602F3943E
:100FD000EACF823309F408C1C8F4803309F09BCF0B
:100FE000F8019181911103C021E02093D601F8010D
:100FF00043816091D6016150690F803309F0EFC0E1
:1010000088EC91E00E94420661E01CC0853341F308
:10101000803F09F080CF1092D60188EC91E00E94C9
:10102000050588EC91E00E94260575CF88EC91E0DB
:101030000E943705019729F463E2CE0101960E94D0
:10104000D60260E0CE0101960E94D60264CF61E034
:10105000CE0101960E94D60261E0CE0101960E9467
:10106000D60262E0CE0101960E94D6026CE0CE016B
:1010700001960E94D60260E0CE0101960E94D6023F
:1010800062E0CE0101960E94D60262E0CE01019696
:101090000E94D60260E0CE0101960E94D60260E076
:1010A000CE0101960E94D60263E0CE0101960E9415
:1010B000D60268E0CE0101960E94D60260E0CE0121
:1010C00001960E94D60260E0CE0101960E94D602EF
:1010D00062E1CE0101960E94D60268E0CE0101963F
:1010E0000E94D60260E0CE0101960E94D60260E026
:1010F000A4CF82EC91E00E94690688EC91E00E9406
:10110000FE0561E0CE0101960E94D602F8018181C0
:10111000823009F047C08281823009F043C082ECFE
:1011200091E00E947506182F82EC91E00E947806EB
:10113000082F282F412F60E088EC91E00E941806CC
:10114000682FCE0101960E94D602202F412F61E028
:1011500088EC91E00E941806682FCE0101960E944B
:10116000D602202F412F62E088EC91E00E94180601
:10117000682FCE0101960E94D602202F412F63E0F6
:1011800088EC91E00E941806682FCE0101960E941B
:10119000D602202F412F64E088EC91E00E941806CF
:1011A000682F50CF65E171E0B2CE64E271E0AFCE5E
:1011B00061E0CE0101960E94D602F12CF8018181F6
:1011C000F81608F0A8CE60E8CE0101960E94D6027B
:1011D00060E0CE0101960E94D602F394EFCF88EC36
:1011E00091E00E944B0610CF628188EC91E00E9452
:1011F00054060ACF88EC91E00E94130582EC91E03E
:101200000C94C606EE0FFF1F0590F491E02D099493
:04121000F894FFCF80
:101214005345474120454E54455250524953455336
:101224002C4C54442E636F6D7061743B4D503032BE
:101234002D494F4E412D4D4A3B766572312E31304A
:1012440066003000756E6B6E6F776E20636F6D6D28
:10125400616E6400726573657400616464726573C1
:10126400730069676E6F7265206B436D644D6169CD
:101274006E496400000000005A045E046C046E04AD
:1012840070048E0400000000B504BB044507444903
:101294005053573A20000D0A0064656C61794D691A
:1012A40063726F7365636F6E6473203E20323535ED
:1012B4003A206E6F7420737570706F727465640079
:1012C400626F6F740045727220436D645377496E88
:1012D4007075740045727220436D64436F696E4982
:0E12E4006E70757400000000004B074C070090
:00000001FF
