:100000000C942C000C9454000C9454000C94540048
:100010000C9454000C9454000C9454000C94540010
:100020000C9454000C9454000C9454000C94540000
:100030000C9454000C9497040C9454000C945400A9
:100040000C9454000C9454000C9454000C945400E0
:100050000C94540006079F0811241FBECFE5D8E07A
:10006000DEBFCDBF11E0A0E6B0E0EEE5F1E102C0F9
:1000700005900D92AE33B107D9F721E0AEE3B1E0C0
:1000800001C01D92A53DB207E1F710E0CCE2D0E03F
:1000900004C02197FE010E94A708CA32D107C9F700
:1000A0000E940C070C94AD080C940000EF92FF9294
:1000B0000F931F93CF93DF937B018A01BC0181ECE7
:1000C00091E00E94950663EE70E081EC91E00E9461
:1000D0009506E7010E0D1F1DC017D107D1F07E0157
:1000E0008881803130F462E970E081EC91E00E9417
:1000F0009506219641E050E0F701608181EC91E0A6
:100100000E949B0664EE70E081EC91E00E949506EF
:10011000E3CF68EE70E081EC91E0DF91CF911F9129
:100120000F91FF90EF900C94DB060F931F93CF93EA
:10013000DC01ED91FC91603D11F0603E89F4C62F29
:100140008C010284F385E02D60ED0995D801ED91D5
:10015000FC916FEF6C0F0284F385E02DC80103C0A2
:100160000284F385E02DCF911F910F910994FC013A
:10017000718360835383428335832483DC01AA5FC8
:10018000BE4F1C9211961C9211961C9211961C92B5
:1001900011961C9211968FEF8C9311968C93AF5FF2
:1001A000BE4F1C92E25FFD4F108208950895CF93D9
:1001B000DF93EC0188819981DC01ED91FC91028053
:1001C000F381E02D60E070E009958A819B81DC017C
:1001D000ED91FC910190F081E02DDF91CF91099498
:1001E0000895CF93DF93EC018A819B81DC01ED912F
:1001F000FC910280F381E02D60E009958C819D8166
:10020000DC01ED91FC910280F381E02D60E0DF9153
:10021000CF910994CF93DF93EC018A819B81DC011C
:10022000ED91FC910280F381E02D61E009958C81D4
:100230009D81DC01ED91FC910280F381E02D61E074
:10024000DF91CF910994EF92FF920F931F93CF9379
:10025000DF93FC01E65FFE4F1082329710827C0133
:1002600025EFE21A2EEFF20AD7012C918C01045FE0
:100270001E4F2F3F29F4F80120812F3F09F465C05C
:10028000EC0188819981DC01ED91FC910280F38180
:10029000E02D61E070E0099564E670E080E090E0B8
:1002A0000E94E706F80180818F3F39F0D7018C93D7
:1002B0008FEF8083CE010E940A0188819981DC0141
:1002C000ED91FC910480F581E02D0995888199815B
:1002D000DC01ED91FC910284F385E02D60EE09953F
:1002E00010E000E07E01B2EFEB1ABEEFFB0AF7016F
:1002F000208188819981211758F0FE01E10FF11DBD
:10030000E35FFE4F6081060F0E9495001F5FEFCFF5
:10031000602F0E94950088819981DC01ED91FC910C
:100320000680F781E02D099588819981DC01ED91A6
:10033000FC910280F381E02D60E070E0DF91CF91CD
:100340001F910F91FF90EF900994DF91CF911F9132
:100350000F91FF90EF900895FC01E35FFE4F108234
:10036000319622E02083319623E020830C942301F0
:100370002F923F924F925F926F927F928F929F92B5
:10038000AF92BF92CF92DF92EF92FF920F931F93A3
:10039000CF93DF9300D000D0CDB7DEB79C838B83A3
:1003A0006C0186EFC81A8EEFD80AAB81BC81A85FBA
:1003B000BE4F5D01EB81FC81E75FFE4F7F010B814A
:1003C0001C810A5F1E4F8B809C80F6E08F0E911C73
:1003D0008B819C81895F9E4F9A8389832B803C808F
:1003E00093EF291A9DEF390A4B805C80A5EF4A1ADA
:1003F000AEEF5A0A6B807C80B2EF6B1ABDEF7B0ABE
:10040000F601808181119DC0AB81BC818D919C9151
:10041000DC01ED91FC910190F081E02D0995181619
:1004200019060CF08EC0EB81FC8180819181DC018A
:10043000ED91FC910084F185E02D0995803EB1F4A9
:10044000F801108281E0D5018C93F7011082AB8115
:10045000BC8112968D919C911397DC01ED91FC91DA
:100460000480F581E02D0995F30108C0D5019C9128
:10047000992331F2803D21F481E0F7018083C0CFE0
:10048000D7019C91992369F0F801908121E0290F0F
:100490002083EB81FC81E90FF11D8F5F86831C9225
:1004A0000AC0D8019C9121E0290F2C93EB81FC819B
:1004B000E90FF11D8683F8012081223008F4A0CFD6
:1004C000AB81BC8117968C9190E0AC014E5F5F4F81
:1004D00030E04217530709F093CFF40120E030E0F9
:1004E00060E0415051092417350728F47191670FD6
:1004F0002F5F3F4FF8CFEB81FC8126812F3F19F40E
:100500003085303F21F0D2013C91231317C0EB819D
:10051000FC81E80FF91F8781861731F08B819C8160
:100520000E94AC01F80108C0E2E0A981BA81EC9315
:1005300081E0D6018C93F101108262CFD8011C9228
:100540005FCF0F900F900F900F90DF91CF911F9181
:100550000F91FF90EF90DF90CF90BF90AF909F9062
:100560008F907F906F905F904F903F902F90089565
:10057000FC01E35FFE4F1082319622E0208331962A
:1005800024E020830C942301CF93DF93EC01C35F1D
:10059000DD4F28812D3F31F40E94B80288818F5FA2
:1005A00088830AC02D3F40F4820F911DFC01E05F5B
:1005B000FE4F60832F5F2883DF91CF910895FC0168
:1005C000E35FFD4F20812E3F10F00C94B802FC0138
:1005D000E35FFE4F108231962E5F2083319621E03B
:1005E00020830C942301FC01E35FFD4F20812E3F0B
:1005F00010F00C94B802FC01E35FFE4F10823196BC
:100600002E5F2083319622E020830C9423017F9279
:100610008F929F92AF92BF92CF92DF92EF92FF9212
:100620000F931F93CF93DF93EC016B017C0186EF57
:10063000E81A8EEFF80A8E01095F1E4F5E01E2EFA5
:10064000AE1AEDEFBE0A4E01F4EF8F1AFEEF9F0ACD
:10065000CE010E94B801F7018081882309F4EAC025
:10066000F80120819F819F5F921B21F4CE010E949F
:10067000DF02EECF30E0B9016A5F7F4F6C0F7D1F64
:10068000FE01E20FF31F8681833270F48132D0F5D0
:100690008531D1F020F4803108F0CFC021C0803204
:1006A000F9F463E0762E30C08233A9F040F48F3243
:1006B00009F4C3C08033A1F454E0752E25C040E195
:1006C000480F4230F8F00CC0FB0131967724739448
:1006D000790E42E010C0FB017180739473940FC0D7
:1006E00041E050E084E990E00E94560013C051912F
:1006F000552321F04F5F4711FACF01C0742E7720A8
:1007000049F002C042E0742E971540F462E0CE0139
:100710000E94C402CE010E94F3029ACF833220F5D8
:10072000803208F072C0823109F45CC060F480311C
:1007300009F46BC0813109F075C061E0CE010E94FF
:10074000C40263E154C0843109F45FC008F453C0AB
:10075000853109F067C040E050E060E070E082EB76
:1007600090E00E9456005EC0823309F44EC038F417
:100770008F3209F446C0803309F054C046C0803F30
:1007800019F0813FC1F04EC0CE010E94F100FE0180
:10079000E55FFE4F8FEF8083F7011082FE01E85F77
:1007A000FE4F108240E050E060E070E084EA90E0AC
:1007B0000E9456002CC0F5018081882389F0FE013B
:1007C000E20FF31F8781F4018083B901695F7F4FD6
:1007D0006C0F7D1F41E050E08AEA90E00E945600D5
:1007E00061E005C061E0CE010E94C40260E3CE0179
:1007F0000E94C4021AC061E0CE010E94C40260E1FE
:10080000F6CFCE010E94230110C0F6017082F801DC
:100810008081870D808390E08719910906968C0F5F
:100820009D1F0EC0CE010E94F302F8018081780E58
:1008300070820ECF80E090E003C07724739464CF81
:10084000DF91CF911F910F91FF90EF90DF90CF90AC
:10085000BF90AF909F908F907F90089580913E01C0
:1008600090E008959FB7F894672B21F48A988AB195
:10087000806903C08A9A8AB18F768AB99FBF08952A
:10088000F8940895789408954FB7F89480913E01B4
:100890008823A9F0E0913F01F0E0EF5BFE4F8081FB
:1008A00020913F0130E02F5F3F4F2F773327209378
:1008B0003F0190913E01915090933E0101C080E034
:1008C0004FBF08950EC020F000009098929A03C088
:1008D000909A929800C038E23A95F1F70000000033
:1008E0000895262F0894EFDF8894EDDF2795EBDF3E
:1008F0002795E9DF2795E7DF2795E5DF2795E3DFF4
:100900002795E1DF2795DFDF2795DDDF0894DBDF23
:10091000089589E185BD13BC8F9A9798089585B590
:10092000662311F08F7C01C0806185BD08951F9200
:100930000F920FB60F9211248F939F93EF93FF9313
:100940005A9918C08CB190913E019F3799F0E0916F
:100950004001F0E0EF5BFE4F80838091400190E02A
:1009600001968F7799278093400180913E018F5F98
:1009700080933E01FF91EF919F918F910F900FBE59
:100980000F901F90189528EC30E0FC0131832083F4
:1009900010BC80E189B982E08BB98AB18874806922
:1009A0008AB986E880BD8A989298889A909A7894B5
:1009B0000895FC0181E08583878311868683808783
:1009C00012861082118212821382148208951ABA3A
:1009D00017BA14BA2FEF2BBB28BB25BB21B32D7E32
:1009E00021BB22B3226122BB0C94D904FC0199B330
:1009F00026B383B340B344FD02C030E801C030E009
:100A0000308321FD02C030E801C030E041FD02C06A
:100A100070E401C070E0372B90FD02C070E201C0AD
:100A200070E0372B91FD02C050E101C050E0352B42
:100A300092FD02C048E001C040E0342B93FD02C0AB
:100A400044E001C040E0342B3183662349F025FDAA
:100A500002C072E001C070E022FB442740F908C0E8
:100A600022FD02C072E001C070E023FB442740F980
:100A700051E04527342B372B318326FD02C040E25D
:100A800001C040E0322F3095331F3327331F32959A
:100A9000307F342B3283422F4071662341F023FD97
:100AA00002C050E801C050E041110AC007C0411126
:100AB00002C050E801C050E025FD02C040E401C082
:100AC00040E0352B342B328381FD02C030E801C079
:100AD00030E094FD02C040E201C040E0342B95FDBF
:100AE00002C040E101C040E0432B96FD02C038E067
:100AF00001C030E0342B9095991F9927991F990FC9
:100B0000990F932B9383662349F085FD02C052E031
:100B100001C050E082FB332730F908C082FD02C0DB
:100B200052E001C050E083FB332730F941E0342725
:100B3000932B952B938386FD02C030E201C030E0F9
:100B4000982F9095991F9927991F9295907F932B95
:100B50009483382F3071662341F083FD02C040E852
:100B600001C040E0332341F009C0311102C040E828
:100B700001C040E085FD02C030E401C030E0942BAC
:100B8000932B948395812923217025839681892332
:100B9000817086830895CF93DF93EC012796DC0163
:100BA0001596FC0139960B9631E02881211106C07B
:100BB0002C91222319F020812F5F20832C912993DF
:100BC0003D933196E817F90781F7DF91CF910895AA
:100BD000FC01E60FF11D80814423F1F06230A1F0A9
:100BE00018F4613031F00895633019F0643061F029
:100BF0000895211111C0218130E095E035952795A8
:100C00009A95E1F7237007C0211106C098E0899FEB
:100C1000900111242078822B0895860F911DFC01EC
:100C200081850895623030F4FC01E60FF11D818565
:100C3000841B81870895FC018181882339F082819A
:100C40008F5F82839381891301C012820895FC0112
:100C500081810895FC0181E022819481291708F0A7
:100C600080E00895FC018581089580B3869586957E
:100C7000869580958F7008951F93CF93DF93EC0135
:100C800018810E9435068883181769F16EED70E0AF
:100C900081EC91E00E94950640E050E0688181EC93
:100CA00091E00E949B0668EE70E081EC91E00E946A
:100CB000DB068881982F917099838C70843079F04D
:100CC00020F4811110C085E007C0883021F08C30FD
:100CD00051F482E005C084E08B8382E003C083E0AE
:100CE0008B8381E08C83DF91CF911F910895FC016C
:100CF0008FEF80831182128213821482158281B356
:100D0000877881BB82B3886782BBCF010C943C0695
:100D100010BC80E189B982E08BB98AB180798860A2
:100D20008AB986E880BD08950895FB018191BF01CD
:100D30008111FBCF0895CF93DF9300D01F92CDB7E1
:100D4000DEB74115510589F14130510571F560312A
:100D500088F0262F30E044E0359527954A95E1F755
:100D60002A30310514F4205D01C0295A298321E07D
:100D700030E002C020E030E0F90131966F706A3057
:100D800010F4605D01C0695AA1E0B0E0AC0FBD1F76
:100D9000A20FB31F6C9321E030E02C0F3D1FE20F38
:100DA000F31F1082B9010E9495060F900F900F90CB
:100DB000DF91CF910895CF93DF93EC010E949506C8
:100DC00066EE70E0CE01DF91CF910C9495066F3FF7
:100DD00071058105910539F030F069EE70E081EC24
:100DE00091E00C94DB06262F34E03A95F1F70000F1
:100DF0002A95D1F7089580E090E008950895089528
:100E0000089580E00895089581E0089581EC91E0CF
:100E10000C94880608950895CF93DF93CDB7DEB77D
:100E2000C651D2400FB6F894DEBF0FBECDBFCE0183
:100E30008C5E9D4F0E94C30488ED90E0CE5EDD4F36
:100E400099838883C251D24089E391E0C05FDD4F2E
:100E500099838883C051D24060E670E081EC91E0D4
:100E60000E94DB069E01205F3D4FAE014E5E5D4F4E
:100E7000BE016C5E7D4FCE0101960E94B700CE018F
:100E800001960E94D70060E171E081EC91E00E9440
:100E9000DB06BE016A5E7D4FCE0101960E9407030C
:100EA0008C01009771F482EC91E00E943C0682EC88
:100EB00091E00E943206682F88EC91E00E94F604CF
:100EC000E8CFFC018081813209F4E9C078F48431F3
:100ED00099F1803209F487C08031D9F661E0CE0102
:100EE00001960E94C40200E610E015C0803309F4A8
:100EF0000AC148F4823269F661E0CE0101960E948F
:100F0000C402F12CEFC0823309F40FC1803F09F60F
:100F10001092D301BECFF80161918F01CE010196ED
:100F2000662319F00E94C402F6CF0E94C40288EC26
:100F300091E00E94D904ADCF61E0CE0101960E94FC
:100F4000C40261E0CE0101960E94C40262E0CE01BB
:100F500001960E94C4026CE0CE0101960E94C40278
:100F600060E0CE0101960E94C40263E0CE010196CA
:100F70000E94C40268E0CE0101960E94C40260E0B3
:100F8000CE0101960E94C40260E0CE0101960E944B
:100F9000C40262E1CE0101960E94C40268E0CE0163
:100FA00001960E94C40260E0CE0101960E94C40234
:100FB00060E0CE0101960E94C40262E0CE0101967B
:100FC0000E94C40262E0CE0101960E94C40260E069
:100FD000CE0101960E94C40260E0CE0101960E94FB
:100FE000C40260E0A7C082EC91E00E941B0688EC7E
:100FF00091E00E94CB0561E0CE0101960E94C402FF
:10100000F8018181823009F047C08281823009F085
:1010100043C082EC91E00E942706182F82EC91E0F9
:101020000E942A06082F282F412F60E088EC91E0CB
:101030000E94E805682FCE0101960E94C402202F6D
:10104000412F61E088EC91E00E94E805682FCE0115
:1010500001960E94C402202F412F62E088EC91E0AB
:101060000E94E805682FCE0101960E94C402202F3D
:10107000412F63E088EC91E00E94E805682FCE01E3
:1010800001960E94C402202F412F64E088EC91E079
:101090000E94E805682F4EC065E171E0F6CE61E080
:1010A000CE0101960E94C402F80181818330B8F418
:1010B000F12CF8018181F81608F0EBCE60E0CE014A
:1010C00001960E94C4026F2D88EC91E00E940D06EB
:1010D000682FCE0101960E94C402F394EACF64E225
:1010E00071E0D3CEF8018181F81608F0D2CE60E825
:1010F000CE0101960E94C40260E0CE0101960E94DA
:10110000C402F394EFCFF8018181811103C091E013
:101110009093D3016091D3016150680FF80143812E
:1011200088EC91E00E94120604C0F801828180934D
:10113000D40161E0CE0101960E94C402AACE88ECDF
:1011400091E00E94E70482EC91E00C947706EE0FA8
:0E115000FF1F0590F491E02D0994F894FFCF55
:10115E005345474120454E544552505249534553ED
:10116E002C4C54442E636F6D7061743B4D50303176
:10117E002D494F4E412D4A533B766572312E3130FB
:10118E0062003000756E6B6E6F776E20636F6D6DE3
:10119E00616E640072657365740061646472657378
:1011AE00730069676E6F7265206B436D644D616984
:1011BE006E496400000000002E0432044004420414
:1011CE00440462040000000089048F0404074449AB
:1011DE005053573A20000D0A0064656C61794D69D1
:1011EE0063726F7365636F6E6473203E20323535A4
:1011FE003A206E6F7420737570706F727465640030
:10120E00626F6F740045727220436D645377496E3E
:10121E007075740045727220436D64436F696E4938
:0E122E006E70757400000000000A070B0700C8
:00000001FF
