:100000000C942C000C9454000C9454000C94540048
:100010000C9454000C9454000C9454000C94540010
:100020000C9454000C9454000C9454000C94540000
:100030000C9454000C94A6040C9454000C9454009A
:100040000C9454000C9454000C9454000C945400E0
:100050000C9454001507AD0811241FBECFE5D8E05D
:10006000DEBFCDBF11E0A0E6B0E0EAE7F1E102C0FB
:1000700005900D92A036B107D9F721E0A0E6B1E0D6
:1000800001C01D92A63FB207E1F710E0CCE2D0E03C
:1000900004C02197FE010E94B508CA32D107C9F7F2
:1000A0000E941B070C94BB080C940000EF92FF9277
:1000B0000F931F93CF93DF937B018A01BC0183EEE3
:1000C00091E00E94A40660EE70E083EE91E00E9451
:1000D000A406E7010E0D1F1DC017D107D1F07E0148
:1000E0008881803130F460E371E083EE91E00E941A
:1000F000A406219641E050E0F701608183EE91E093
:100100000E94AA0661EE70E083EE91E00E94A406D0
:10011000E3CF65EE70E083EE91E0DF91CF911F9128
:100120000F91FF90EF900C94EA060F931F93CF93DB
:10013000DC01ED91FC91603D11F0603E89F4C62F29
:100140008C010284F385E02D60ED0995D801ED91D5
:10015000FC916FEF6C0F0284F385E02DC80103C0A2
:100160000284F385E02DCF911F910F910994FC013A
:10017000718360835383428335832483DC01AA5FC8
:10018000BE4F1C9211961C9211961C9211961C92B5
:1001900011961C9211968FEF8C9311968C93AF5FF2
:1001A000BE4F1C92E25FFD4F108208950895CF93D9
:1001B000DF93EC0188819981DC01ED91FC91028053
:1001C000F381E02D60E070E009958A819B81DC017C
:1001D000ED91FC910190F081E02DDF91CF91099498
:1001E0000895CF93DF93EC018A819B81DC01ED912F
:1001F000FC910280F381E02D60E009958C819D8166
:10020000DC01ED91FC910280F381E02D60E0DF9153
:10021000CF910994CF93DF93EC018A819B81DC011C
:10022000ED91FC910280F381E02D61E009958C81D4
:100230009D81DC01ED91FC910280F381E02D61E074
:10024000DF91CF910994EF92FF920F931F93CF9379
:10025000DF93FC01E65FFE4F1082329710827C0133
:1002600025EFE21A2EEFF20AD7012C918C01045FE0
:100270001E4F2F3F29F4F80120812F3F09F465C05C
:10028000EC0188819981DC01ED91FC910280F38180
:10029000E02D61E070E0099564E670E080E090E0B8
:1002A0000E94F606F80180818F3F39F0D7018C93C8
:1002B0008FEF8083CE010E940A0188819981DC0141
:1002C000ED91FC910480F581E02D0995888199815B
:1002D000DC01ED91FC910284F385E02D60EE09953F
:1002E00010E000E07E01B2EFEB1ABEEFFB0AF7016F
:1002F000208188819981211758F0FE01E10FF11DBD
:10030000E35FFE4F6081060F0E9495001F5FEFCFF5
:10031000602F0E94950088819981DC01ED91FC910C
:100320000680F781E02D099588819981DC01ED91A6
:10033000FC910280F381E02D60E070E0DF91CF91CD
:100340001F910F91FF90EF900994DF91CF911F9132
:100350000F91FF90EF900895FC01E35FFE4F108234
:10036000319622E02083319623E020830C942301F0
:100370002F923F924F925F926F927F928F929F92B5
:10038000AF92BF92CF92DF92EF92FF920F931F93A3
:10039000CF93DF9300D000D0CDB7DEB79C838B83A3
:1003A0006C0186EFC81A8EEFD80AAB81BC81A85FBA
:1003B000BE4F5D01EB81FC81E75FFE4F7F010B814A
:1003C0001C810A5F1E4F8B809C80F6E08F0E911C73
:1003D0008B819C81895F9E4F9A8389832B803C808F
:1003E00093EF291A9DEF390A4B805C80A5EF4A1ADA
:1003F000AEEF5A0A6B807C80B2EF6B1ABDEF7B0ABE
:10040000F601808181119DC0AB81BC818D919C9151
:10041000DC01ED91FC910190F081E02D0995181619
:1004200019060CF08EC0EB81FC8180819181DC018A
:10043000ED91FC910084F185E02D0995803EB1F4A9
:10044000F801108281E0D5018C93F7011082AB8115
:10045000BC8112968D919C911397DC01ED91FC91DA
:100460000480F581E02D0995F30108C0D5019C9128
:10047000992331F2803D21F481E0F7018083C0CFE0
:10048000D7019C91992369F0F801908121E0290F0F
:100490002083EB81FC81E90FF11D8F5F86831C9225
:1004A0000AC0D8019C9121E0290F2C93EB81FC819B
:1004B000E90FF11D8683F8012081223008F4A0CFD6
:1004C000AB81BC8117968C9190E0AC014E5F5F4F81
:1004D00030E04217530709F093CFF40120E030E0F9
:1004E00060E0415051092417350728F47191670FD6
:1004F0002F5F3F4FF8CFEB81FC8126812F3F19F40E
:100500003085303F21F0D2013C91231317C0EB819D
:10051000FC81E80FF91F8781861731F08B819C8160
:100520000E94AC01F80108C0E2E0A981BA81EC9315
:1005300081E0D6018C93F101108262CFD8011C9228
:100540005FCF0F900F900F900F90DF91CF911F9181
:100550000F91FF90EF90DF90CF90BF90AF909F9062
:100560008F907F906F905F904F903F902F90089565
:10057000FC01E35FFE4F1082319622E0208331962A
:1005800024E020830C942301CF93DF93EC01C35F1D
:10059000DD4F28812D3F31F40E94B80288818F5FA2
:1005A00088830AC02D3F40F4820F911DFC01E05F5B
:1005B000FE4F60832F5F2883DF91CF910895FC0168
:1005C000E35FFD4F20812E3F10F00C94B802FC0138
:1005D000E35FFE4F108231962E5F2083319621E03B
:1005E00020830C942301FC01E35FFD4F20812E3F0B
:1005F00010F00C94B802FC01E35FFE4F10823196BC
:100600002E5F2083319622E020830C9423012F92C9
:100610003F924F925F926F927F928F929F92AF9292
:10062000BF92CF92DF92EF92FF920F931F93CF93DF
:10063000DF93EC016B017C0186EFE81A8EEFF80A7C
:100640008E01095F1E4F2E01E5EF4E1AEEEF5E0A96
:1006500022242A943E01F8EF6F1AFEEF7F0A5E0112
:1006600082EFA81A8DEFB80A4E01E4EF8E1AEEEF72
:100670009E0ACE010E94B801F7018081882309F407
:10068000E3C0F80120819F819F5F921B21F4CE017E
:100690000E94DF02EECF30E0B9016A5F7F4F6C0F3E
:1006A0007D1FFE01E20FF31F8681833270F48132D9
:1006B000C0F58531D1F020F4803108F0C8C020C0E9
:1006C0008032F1F463E0362E2EC08233A1F040F484
:1006D0008F3209F4BCC0803399F454E0352E23C026
:1006E00040E1480F4230E8F00BC0FB01319661E079
:1006F000690F42E010C0FB013180339433940EC087
:1007000041E050E081E990E00E94560012C0519112
:10071000552319F04F5F4613FACF342E332049F09A
:1007200002C042E0342E931540F462E0CE010E94F4
:10073000C402CE010E94F3029CCF833220F58032A6
:1007400008F06DC0823109F457C060F4803109F4BB
:1007500066C0813109F070C061E0CE010E94C40220
:1007600063E14FC0843109F45AC008F44EC08531AA
:1007700009F062C040E050E060E070E08FEA90E095
:100780000E94560059C0823309F449C038F48F32B0
:1007900009F441C0803309F04FC041C0803F19F0D7
:1007A000813F99F049C0CE010E94F100F201208200
:1007B000F7011082F301108240E050E060E070E049
:1007C00081EA90E00E9456003AC0F50180818823BA
:1007D00089F0FE01E20FF31F8781F4018083B901E4
:1007E000695F7F4F6C0F7D1F41E050E087EA90E02A
:1007F0000E94560061E005C061E0CE010E94C40283
:1008000060E3CE010E94C4021AC061E0CE010E94E2
:10081000C40260E1F6CFCE010E94230110C0F601B0
:100820003082F8018081830D808390E083199109E3
:1008300006968C0F9D1F0EC0CE010E94F302F80198
:100840008081380E308215CF80E090E003C03324E1
:10085000339469CFDF91CF911F910F91FF90EF906B
:10086000DF90CF90BF90AF909F908F907F906F90D0
:100870005F904F903F902F9008958091600190E09D
:1008800008959FB7F894672B21F48A988AB18069FC
:1008900003C08A9A8AB18F768AB99FBF0895F89467
:1008A0000895789408954FB7F89480916001882353
:1008B000A9F0E0916101F0E0ED59FE4F80812091B7
:1008C000610130E02F5F3F4F2F7733272093610185
:1008D0009091600191509093600101C080E04FBF02
:1008E00008950EC020F000009098929A03C0909A4C
:1008F000929800C038E23A95F1F7000000000895A0
:10090000262F0894EFDF8894EDDF2795EBDF2795FE
:10091000E9DF2795E7DF2795E5DF2795E3DF2795D3
:10092000E1DF2795DFDF2795DDDF0894DBDF089522
:1009300089E185BD13BC8F9A9798089585B5662384
:1009400011F08F7C01C0806185BD08951F920F92C8
:100950000FB60F9211248F939F93EF93FF935A99A1
:1009600018C08CB1909160019F3799F0E0916201BD
:10097000F0E0ED59FE4F80838091620190E0019696
:100980008F77992780936201809160018F5F8093B8
:100990006001FF91EF919F918F910F900FBE0F908B
:1009A0001F90189525EC30E0FC013183208310BCAA
:1009B00080E189B982E08BB98AB1887480698AB98B
:1009C00086E880BD8A989298889A909A789408953B
:1009D000FC0181E085838783118686838087128668
:1009E0001082118212821382148208951ABA17BAE1
:1009F00014BA2FEF2BBB28BB25BB21B32D7E21BB07
:100A000022B3226122BB0C94E804FC0199B326B303
:100A100083B340B344FD02C030E801C030E030830E
:100A200021FD02C030E801C030E041FD02C070E4A9
:100A300001C070E0372B90FD02C070E201C070E091
:100A4000372B91FD02C050E101C050E0352B92FDE3
:100A500002C048E001C040E0342B93FD02C044E0F6
:100A600001C040E0342B3183662349F025FD02C0EC
:100A700072E001C070E022FB442740F908C022FD6B
:100A800002C072E001C070E023FB442740F951E04E
:100A90004527342B372B318326FD02C040E201C0AD
:100AA00040E0322F3095331F3327331F3295307F8C
:100AB000342B3283422F4071662341F023FD02C064
:100AC00050E801C050E041110AC007C0411102C006
:100AD00050E801C050E025FD02C040E401C040E004
:100AE000352B342B328381FD02C030E801C030E069
:100AF00094FD02C040E201C040E0342B95FD02C0ED
:100B000040E101C040E0432B96FD02C038E001C047
:100B100030E0342B9095991F9927991F990F990FC1
:100B2000932B9383662349F085FD02C052E001C0F8
:100B300050E082FB332730F908C082FD02C052E04A
:100B400001C050E083FB332730F941E03427932B79
:100B5000952B938386FD02C030E201C030E0982FD0
:100B60009095991F9927991F9295907F932B948325
:100B7000382F3071662341F083FD02C040E801C088
:100B800040E0332341F009C0311102C040E801C008
:100B900040E085FD02C030E401C030E0942B932B8F
:100BA00094839581292321702583968189238170DF
:100BB00086830895CF93DF93EC012796DC01159689
:100BC000FC0139960B9631E02881211106C02C9149
:100BD000222319F020812F5F20832C9129933D93AC
:100BE0003196E817F90781F7DF91CF910895FC015D
:100BF000E60FF11D80814423F1F06230A1F018F47A
:100C0000613031F00895633019F0643061F0089577
:100C1000211111C0218130E095E0359527959A95F5
:100C2000E1F7237007C0211106C098E0899F900169
:100C300011242078822B0895860F911DFC01818557
:100C40000895623030F4FC01E60FF11D8185841BAC
:100C500081870895FC018181882339F082818F5F2B
:100C600082839381891301C012820895FC018181DE
:100C70000895FC0181E022819481291708F080E029
:100C80000895FC018581089580B3869586958695A3
:100C900080958F7008951F93CF93DF93EC01188197
:100CA0000E9444068883181769F16BED70E083EEAB
:100CB00091E00E94A40640E050E0688183EE91E05C
:100CC0000E94AA0665EE70E083EE91E00E94EA06BB
:100CD0008881982F917099838C70843079F020F4FA
:100CE000811110C085E007C0883021F08C3051F4AC
:100CF00082E005C084E08B8382E003C083E08B83C5
:100D000081E08C83DF91CF911F910895FC018FEFDB
:100D100080831182128213821482158281B38778B4
:100D200081BB82B3886782BBCF010C944B0610BC99
:100D300080E189B982E08BB98AB1807988608AB90B
:100D400086E880BD08950895FB018191BF0181115E
:100D5000FBCF0895CF93DF9300D01F92CDB7DEB7BE
:100D60004115510589F14130510571F5603188F027
:100D7000262F30E044E0359527954A95E1F72A3053
:100D8000310514F4205D01C0295A298321E030E0A7
:100D900002C020E030E0F90131966F706A3010F443
:100DA000605D01C0695AA1E0B0E0AC0FBD1FA20FA9
:100DB000B31F6C9321E030E02C0F3D1FE20FF31FB7
:100DC0001082B9010E94A4060F900F900F90DF913E
:100DD000CF910895CF93DF93EC010E94A40663EEB8
:100DE00070E0CE01DF91CF910C94A4066F3F7105A6
:100DF0008105910539F030F066EE70E083EE91E008
:100E00000C94EA06262F34E03A95F1F700002A9573
:100E1000D1F7089580E090E0089508950895089529
:100E200080E00895089581E0089583EE91E00C94A8
:100E3000970608950895CF93DF93CDB7DEB7C651D7
:100E4000D2400FB6F894DEBF0FBECDBFCE018C5E90
:100E50009D4F0E94D20485ED90E0CE5EDD4F9983D8
:100E60008883C251D2408BE591E0C05FDD4F99830A
:100E70008883C051D2406DE071E083EE91E00E9422
:100E8000EA0660E670E083EE91E00E94EA069E01C9
:100E9000205F3D4FAE014E5E5D4FBE016C5E7D4FEB
:100EA000CE0101960E94B700CE0101960E94D700A4
:100EB00062E371E083EE91E00E94EA06BE016A5EA1
:100EC0007D4FCE0101960E9407038C01009771F4BB
:100ED00084EE91E00E944B0684EE91E00E94410670
:100EE000682F8AEE91E00E940505E8CFFC01808121
:100EF000813209F4E3C078F4843171F1803209F46D
:100F000082C08031D9F661E0CE0101960E94C40210
:100F100000E610E010C0803309F40CC1823309F4FC
:100F200012C1823259F661E0CE0101960E94C402DC
:100F3000E12CF12CEAC0F80161918F01CE010196FC
:100F4000662319F00E94C402F6CF0E94C4028AEE02
:100F500091E00E94E804B2CF61E0CE0101960E94C8
:100F6000C40261E0CE0101960E94C40262E0CE019B
:100F700001960E94C4026CE0CE0101960E94C40258
:100F800060E0CE0101960E94C40263E0CE010196AA
:100F90000E94C40268E0CE0101960E94C40260E093
:100FA000CE0101960E94C40260E0CE0101960E942B
:100FB000C40262E1CE0101960E94C40268E0CE0143
:100FC00001960E94C40260E0CE0101960E94C40214
:100FD00060E0CE0101960E94C40262E0CE0101965B
:100FE0000E94C40262E0CE0101960E94C40260E049
:100FF000CE0101960E94C40260E0CE0101960E94DB
:10100000C40260E0A5C084EE91E00E942A068AEE48
:1010100091E00E94DA0561E0CE0101960E94C402CF
:10102000F8018181823009F046C08281823009F066
:1010300042C084EE91E00E943606182F84EE91E0C3
:101040000E943906082F282F412F60E08AEE91E098
:101050000E94F705682FCE0101960E94C402202F3E
:10106000412F61E08AEE91E00E94F705682FCE01E2
:1010700001960E94C402202F412F62E08AEE91E087
:101080000E94F705682FCE0101960E94C402202F0E
:10109000412F63E08AEE91E00E94F705682FCE01B0
:1010A00001960E94C402202F412F64E08AEE91E055
:1010B0000E94F70525C067E371E0FCCE61E0CE0138
:1010C00001960E94C402F80181818230D9F460E067
:1010D000CE0101960E94C40260E08AEE91E00E9477
:1010E0001C06682FCE0101960E94C40260E0CE016A
:1010F00001960E94C40261E08AEE91E00E941C0603
:10110000682F26C066E471E0D5CEF801818190E0B9
:10111000E816F90608F0D2CE60E8CE0101960E94EA
:10112000C40260E0CE0101960E94C402FFEFEF1AF4
:10113000FF0AEBCFF8016181615043818AEE91E0B3
:101140000E94210604C0F80182818093F50161E0CC
:10115000CE0101960E94C402B1CE8AEE91E00E94B7
:10116000F60484EE91E00C948606EE0FFF1F0590C6
:0A117000F491E02D0994F894FFCFEC
:10117A005345474120454E544552505249534553D1
:10118A002C4C54442E636F6D7061743B4D5030315A
:10119A002D494F4E412D4A533B766572312E3130DF
:1011AA0000756E6B6E6F776E20636F6D6D616E6426
:1011BA0000726573657400616464726573730069B3
:1011CA00676E6F7265206B436D644D61696E496429
:1011DA0000000000003D0441044F0451045304710F
:1011EA00040000000098049E041307444950535712
:1011FA003A20000D0A0064656C61794D6963726F6B
:10120A007365636F6E6473203E203235353A206E03
:10121A006F7420737570706F7274656400494F4EF5
:10122A0041204A414D4D41205374616E646172649C
:10123A00204D6F64656C202D2056657220312E3149
:10124A003000626F6F740045727220436D64537789
:10125A00496E7075740045727220436D64436F69FC
:10126A006E496E707574000000000019071A0700B5
:00000001FF
