:100000000C942C000C9454000C9454000C94540048
:100010000C9454000C9454000C9454000C94540010
:100020000C9454000C9454000C9454000C94540000
:100030000C9454000C9472040C9454000C945400CE
:100040000C9454000C9454000C9454000C945400E0
:100050000C945400B706540811241FBECFE5D8E015
:10006000DEBFCDBF11E0A0E6B0E0E8ECF0E102C0F9
:1000700005900D92AE33B107D9F721E0AEE3B1E0C0
:1000800001C01D92A43DB207E1F710E0CCE2D0E040
:1000900004C02197FE010E945C08CA32D107C9F74B
:1000A0000E94BD060C9462080C9400000F931F93ED
:1000B000CF93DF93EB018A01BC0181EC91E00E94B8
:1000C000540663EE70E081EC91E00E94540690E0EB
:1000D00080E080179107C8F48881803130F462E9AC
:1000E00070E081EC91E00E94540641E050E06881AC
:1000F00081EC91E00E945A0664EE70E081EC91E0A0
:100100000E94540681E090E0E4CF68EE70E081EC5C
:1001100091E0DF91CF911F910F910C9495060F9371
:100120001F93CF93DC01ED91FC910284F385E02DC8
:10013000603D11F0603E69F4C62F8C0160ED0995B9
:100140006FEF6C0FD801ED91FC910284F385E02DE7
:10015000C801CF911F910F910994FC0171836083B5
:100160005383428335832483DC01AA5FBE4F1C92F4
:1001700011961C9211961C9211961C9211961C922B
:1001800011968FEF8C9311968C93AF5FBE4F1C929C
:10019000E25FFD4F108208950895CF93DF93EC0145
:1001A00088819981DC01ED91FC910280F381E02D41
:1001B00070E060E009958A819B81DC01ED91FC9102
:1001C0000190F081E02DDF91CF9109940895CF93B4
:1001D000DF93EC018A819B81DC01ED91FC9102802F
:1001E000F381E02D60E009958C819D81DC01ED912A
:1001F000FC910280F381E02D60E0DF91CF910994C2
:10020000CF93DF93EC018A819B81DC01ED91FC911E
:100210000280F381E02D61E009958C819D81DC01F4
:10022000ED91FC910280F381E02D61E0DF91CF91AF
:100230000994EF92FF920F931F93CF93DF93FC01EA
:10024000E65FFE4F1082329710827C0125EFE21AA2
:100250002EEFF20AD7012C918C01045F1E4F2F3F25
:1002600029F4F80120812F3F09F465C0EC01888151
:100270009981DC01ED91FC910280F381E02D61E038
:1002800070E0099564E670E080E090E00E94A106CD
:10029000F80180818F3F39F0D7018C938FEF8083F5
:1002A000CE010E94000188819981DC01ED91FC91D1
:1002B0000480F581E02D099588819981DC01ED911B
:1002C000FC910284F385E02D60EE099510E000E0DA
:1002D0007E01B2EFEB1ABEEFFB0A88819981F7012C
:1002E0002081211758F0FE01E10FF11DE35FFE4F61
:1002F0006081060F0E948F001F5FEFCF602F0E946A
:100300008F0088819981DC01ED91FC910680F78155
:10031000E02D099588819981DC01ED91FC910280A5
:10032000F381E02D70E060E0DF91CF911F910F919C
:10033000FF90EF900994DF91CF911F910F91FF9063
:10034000EF900895FC01E35FFE4F1082319622E0AA
:100350002083319623E020830C9419012F923F9241
:100360004F925F926F927F928F929F92AF92BF92C5
:10037000CF92DF92EF92FF920F931F93CF93DF9371
:1003800000D000D0CDB7DEB79C838B836C0126EF05
:10039000C21A2EEFD20A885F9E4F5C014B815C81AE
:1003A000475F5E4F7A010B811C810A5F1E4F8B8174
:1003B0009C81895F9E4F9A83898382E0282E332413
:1003C00033944B805C8093EF491A9DEF590A6B8000
:1003D0007C80A5EF6A1AAEEF7A0A8B809C80B2EF20
:1003E0008B1ABDEF9B0AF6018081811191C0AB8110
:1003F000BC818D919C91DC01ED91FC910190F0818B
:10040000E02D0995181619060CF082C0EB81FC81CD
:1004100080819181DC01ED91FC910084F185E02DDA
:100420000995803EA9F4F8011082D5013C92F701AC
:100430001082AB81BC8112968D919C91DC01ED9173
:10044000FC910480F581E02D0995F4018083CBCFE8
:10045000D5019C91992339F2803D19F4F70130823E
:10046000C2CFD801EC9121E02E0FD7019C914B8196
:100470005C814E0F511DFA01D8012C93992301F193
:100480008F5F8683F7011082223008F4ACCFEB81B6
:10049000FC81878190E0AC014E5F5F4F2417150609
:1004A00009F0A1CF369630E020E060E041505109DC
:1004B0002417350738F47191670F2F5F3F4FF8CF3E
:1004C0008683E2CFAB81BC8116962C9116972F3F85
:1004D00021F418963C91303F21F0F3013081231331
:1004E0000CC02B813C81820F931FDC0117968C91ED
:1004F000861731F0C9010E94A201F801108273CF62
:10050000A981BA812C92F6013082D2011C926BCF64
:100510000F900F900F900F90DF91CF911F910F913F
:10052000FF90EF90DF90CF90BF90AF909F908F9013
:100530007F906F905F904F903F902F900895FC01B7
:10054000E35FFE4F1082319622E02083319624E053
:1005500020830C941901CF93DF93EC01C35FDD4F2F
:1005600028812D3F41F40E949F0288818F5F8883FC
:10057000DF91CF9108952D3FD8F7820F911DFC0197
:10058000E05FFE4F60832F5F2883F2CFFC01E35FC3
:10059000FD4F20812E3F10F00C949F02FC01E35F81
:1005A000FE4F108231962E5F2083319621E020830A
:1005B0000C941901FC01E35FFD4F20812E3F10F0E8
:1005C0000C949F02FC01E35FFE4F108231962E5F78
:1005D0002083319622E020830C9419017F928F9220
:1005E0009F92AF92BF92CF92DF92EF92FF920F93C2
:1005F0001F93CF93DF93EC016B017C0186EFE81A28
:100600008EEFF80A8E01095F1E4F4E01E2EF8E1A3F
:10061000EDEF9E0A5E01F4EFAF1AFEEFBF0ACE01C6
:100620000E94AE01F7018081882309F4EFC0F80130
:1006300020819F819F5F921B21F4CE010E94C60200
:10064000EECF30E0B9016A5F7F4F6C0F7D1FFE0176
:10065000E20FF31F86818332E0F4813258F5853151
:1006600061F160F48031E8F541E050E084E990E028
:100670000E945600CE010E94DA02D1CF43E0742ED0
:10068000803291F7971578F562E0CE010E94AB02B7
:10069000F1CF8233F9F038F48F3219F1803321F73A
:1006A00074E0772EEFCF8533D9F3F0F240E1480FB5
:1006B0004230D0F652E0752EE5CFFB01319641E095
:1006C000490F62E0762E741649F05191552331F0AE
:1006D0007394F9CFFB017180739473947110D2CF2E
:1006E000C9CF772473948332F0F4803220F58231BD
:1006F00009F47CC048F48031F1F0813109F470C014
:10070000CE010E94DA0267C08431A9F008F474C0F7
:100710008531B1F750E040E070E060E082EB90E0BE
:100720000E945600EDCF823331F040F48F3209F44D
:1007300069C0803329F7F60170821DC0803F29F01F
:10074000813F81F18533E1F6F6CFCE010E94E700CB
:10075000FE01E55FFE4F8FEF8083F7011082FE01FF
:10076000E85FFE4F108250E040E070E060E084EA15
:1007700090E00E945600F8018081870D80838719E0
:10078000990B06968C0F9D1FDF91CF911F910F91B2
:10079000FF90EF90DF90CF90BF90AF909F908F90A1
:1007A0007F900895F4018081882389F0FE01E20F93
:1007B000F31F8781F5018083B901695F7F4F6C0F5B
:1007C0007D1F41E050E08AEA90E00E94560061E01F
:1007D000CE010E94AB02F8018081780E70821FCF9B
:1007E00061E0CE010E94AB0263E1F2CF61E0CE0195
:1007F0000E94AB0260E3ECCF61E0CE010E94AB024D
:1008000060E1E6CFCE010E941901E5CF90E080E0E3
:10081000BBCF80913E0190E008959FB7F894672B7D
:1008200031F48A988AB180698AB99FBF08958A9AFB
:100830008AB18F76F9CFF8940895789408954FB7D8
:10084000F89480913E018823B1F0E0913F01F0E0FF
:10085000EF5BFE4F808120913F0130E02F5F3F4FE3
:100860002F77332720933F0190913E019150909331
:100870003E014FBF089580E0FCCF0EC020F0000085
:100880009098929A03C0909A929800C038E23A9554
:10089000F1F7000000000895262F0894EFDF8894F8
:1008A000EDDF2795EBDF2795E9DF2795E7DF279534
:1008B000E5DF2795E3DF2795E1DF2795DFDF279544
:1008C000DDDF0894DBDF089589E185BD13BC8F9AD5
:1008D0009798089585B5662319F08F7C85BD089596
:1008E0008061FCCF1F920F920FB60F9211248F934D
:1008F0009F93EF93FF935A9918C08CB190913E014A
:100900009F3799F0E0914001F0E0EF5BFE4F80836C
:100910008091400190E001968F7799278093400164
:1009200080913E018F5F80933E01FF91EF919F91F7
:100930008F910F900FBE0F901F90189528EC30E00C
:10094000FC013183208310BC80E189B982E08BB93E
:100950008AB1887480698AB986E880BD8A9892983D
:10096000889A909A78940895FC0181E08583878322
:1009700011868683808712861082118212821382EA
:10098000148208951ABA17BA14BA2FEF2BBB28BBDA
:1009900025BB21B32D7E21BB22B3226122BB0C9447
:1009A000B404FC0149B326B393B330B380E034FF01
:1009B00080E8808380E021FF80E831FF78C030E06C
:1009C000832B30E040FF30E2832B30E041FF30E109
:1009D000832B30E042FF38E0832B30E043FF34E0EC
:1009E000832B8183522F5470662309F462C070E018
:1009F00025FF72E031E0511130E0832B872B81839A
:100A000080E026FF80E230E027FF30E1832B828305
:100A1000322F3071662309F459C050E023FF50E8AB
:100A2000332309F459C030E0852B832B828380E087
:100A300091FF80E830E044FF30E2832B30E045FF57
:100A400030E1832B30E046FF38E0832B30E047FF76
:100A500034E0832B8383492F4470662309F43EC01E
:100A600050E095FF52E031E0411130E0832B852BBF
:100A7000838380E096FF80E230E097FF30E1832BB4
:100A80008483392F30716623B1F140E093FF40E851
:100A90003323B9F130E0842B832B8483217085814B
:100AA000282325839170868198239683089530E4C6
:100AB00087CF552349F050E023FB332730F971E00D
:100AC0003727832B852B9BCF52E0F6CF50E0311197
:100AD00001C050E825FDA7CF30E4A6CF442349F05C
:100AE00040E093FB332730F951E03527832B842BEB
:100AF000BFCF42E0F6CF40E0311101C040E895FDA4
:100B0000C9CF30E4C8CFFC0187819581811105C030
:100B1000992319F081858F5F8187978381E0858391
:100B200080859681811105C0992319F082858F5F98
:100B30008287908781E086830895FC01E60FF11D8E
:100B400080814423B1F06230A9F018F4613031F0B3
:100B50000895633019F0643069F00895211109C0D7
:100B6000218130E095E0359527959A95E1F723703E
:100B7000822B08952111FDCF98E0899F90011124C7
:100B80002078F6CF860F911DFC0181850895623093
:100B900030F4FC01E60FF11D8185841B81870895E7
:100BA000623030F4FC01E60FF11D8185480F41876A
:100BB0000895FC018181882339F082818F5F8283CF
:100BC0009381891301C012820895FC0181810895E7
:100BD000FC0181E022819481291708F080E00895CA
:100BE000FC018581089580B38695869586958095CC
:100BF0008F7008951F93CF93DF93EC0118810E94AB
:100C0000F30588838117E9F06EED70E081EC91E0E7
:100C10000E94540650E040E0688181EC91E00E941F
:100C20005A0668EE70E081EC91E00E94950688819A
:100C3000982F917099838C708430A1F030F48823C0
:100C400051F0DF91CF911F910895883049F08C3099
:100C5000C1F782E008C085E08B8382E08C83F1CF0E
:100C600084E0FACF83E08B8381E0F8CFFC018FEF43
:100C700080831182128213821482158281B3877855
:100C800081BB82B3886782BBCF010C94FA0510BC8C
:100C900080E189B982E08BB98AB1807988608AB9AC
:100CA00086E880BD08950895FB018191BF018111FF
:100CB000FBCF0895CF93DF9300D01F92CDB7DEB75F
:100CC0004115510541F14130510529F530E020E051
:100CD000603168F0262F30E044E0359527954A953D
:100CE000E1F72A30F0F4205D298321E030E06F70D5
:100CF000F90131966A30B8F4605D41E050E04C0F84
:100D00005D1F240F351FD9016C93E40FF51F10826E
:100D1000BA010E9454060F900F900F90DF91CF916F
:100D20000895295AE1CF695AE8CFCF93DF93EC01B8
:100D30000E94540666EE70E0CE01DF91CF910C94D4
:100D400054066F3F71058105910539F030F069EE69
:100D500070E081EC91E00C949506262F34E03A95F2
:100D6000F1F700002A95D1F7089581E0089581EC0C
:100D700091E00C94470608950895CF93DF93CDB783
:100D8000DEB7C651D2400FB6F894DEBF0FBECDBF5E
:100D9000CE018C5E9D4F0E949E0488ED90E0CE5E59
:100DA000DD4F99838883C251D24089E391E0C05FCF
:100DB000DD4F99838883C051D24060E670E081ECBA
:100DC00091E00E9495069E01205F3D4FAE014E5E70
:100DD0005D4FBE016C5E7D4FCE0101960E94AD005D
:100DE000CE0101960E94CD0060E171E081EC91E0BE
:100DF0000E949506BE016A5E7D4FCE0101960E945B
:100E0000EE028C01009771F482EC91E00E94FA05E9
:100E100082EC91E00E94F005682F88EC91E00E943E
:100E2000D104E8CFFC018081823209F421C1F0F5C0
:100E3000843109F463C0A0F48031E1F661E0CE01B1
:100E400001960E94AB0200E610E0F80161918F016B
:100E5000662309F4A8C0CE0101960E94AB02F5CF2B
:100E6000803209F4A6C0813229F661E0CE010196F4
:100E70000E94AB02F8018181833008F0F6C0F12CAA
:100E8000F8018181F81608F0B5CF60E0CE01019637
:100E90000E94AB026F2D88EC91E00E94C205682F82
:100EA000CE0101960E94AB02F394EACF8233C1F0E7
:100EB000C8F4803309F09ECFF8019181911103C0ED
:100EC00021E02093D301F80143816091D301615067
:100ED000690F803309F0E3C088EC91E00E94C705F8
:100EE00061E062C0853341F3803F09F083CF109207
:100EF000D30188EC91E00E94B4047CCF61E0CE0184
:100F000001960E94AB0261E0CE0101960E94AB0205
:100F100062E0CE0101960E94AB026CE0CE01019628
:100F20000E94AB0260E0CE0101960E94AB0262E03B
:100F3000CE0101960E94AB0262E0CE0101960E94B2
:100F4000AB0260E0CE0101960E94AB0260E0CE01F0
:100F500001960E94AB0263E0CE0101960E94AB02B3
:100F600068E0CE0101960E94AB0260E0CE010196DE
:100F70000E94AB0260E0CE0101960E94AB0262E1EA
:100F8000CE0101960E94AB0268E0CE0101960E945C
:100F9000AB0260E0CE0101960E94AB0260E0CE01A0
:100FA00001960E94AB0260E0CE0101960E94AB0266
:100FB00021CF82EC91E00E94D90588EC91E00E945B
:100FC000830561E0CE0101960E94AB02F8018181A8
:100FD000823009F047C08281823009F043C082EC40
:100FE00091E00E94E505182F82EC91E00E94E8054F
:100FF000082F282F412F60E088EC91E00E949D058A
:10100000682FCE0101960E94AB02202F412F61E094
:1010100088EC91E00E949D05682FCE0101960E9408
:10102000AB02202F412F62E088EC91E00E949D05E9
:10103000682FCE0101960E94AB02202F412F63E062
:1010400088EC91E00E949D05682FCE0101960E94D8
:10105000AB02202F412F64E088EC91E00E949D05B7
:10106000682FA2CF65E171E0C1CE64E271E0BECE2F
:1010700061E0CE0101960E94AB02F12CF801818162
:10108000F81608F0B7CE60E8CE0101960E94AB02D8
:1010900060E0CE0101960E94AB02F394EFCF88ECA2
:1010A00091E00E94D0051CCF88EC91E00E94C20420
:1010B00082EC91E00C943606EE0FFF1F0590F49140
:0810C000E02D0994F894FFCF24
:1010C8005345474120454E54455250524953455384
:1010D8002C4C54442E636F6D7061743B4D5030310D
:1010E8002D494F4E412D4A533B766572312E313092
:1010F80065003000756E6B6E6F776E20636F6D6D77
:10110800616E64007265736574006164647265730E
:10111800730069676E6F7265206B436D644D61691A
:101128006E4964000000000009040D041B041D043E
:101138001F043D040000000064046A04B506444925
:101148005053573A20000D0A0064656C61794D6967
:1011580063726F7365636F6E6473203E203235353A
:101168003A206E6F7420737570706F7274656400C6
:10117800626F6F740045727220436D645377496ED5
:101188007075740045727220436D64436F696E49CF
:0E1198006E7075740000000000BB06BC0600FF
:00000001FF
